{
  "contractName": "PetitionContract",
  "abi": [
    {
      "anonymous": false,
      "inputs": [
        {
          "indexed": false,
          "internalType": "bytes32",
          "name": "petitionId",
          "type": "bytes32"
        },
        {
          "indexed": false,
          "internalType": "bytes32",
          "name": "hash",
          "type": "bytes32"
        }
      ],
      "name": "PetitionCreated",
      "type": "event"
    },
    {
      "anonymous": false,
      "inputs": [
        {
          "indexed": false,
          "internalType": "bytes32",
          "name": "petitionId",
          "type": "bytes32"
        }
      ],
      "name": "PetitionPublished",
      "type": "event"
    },
    {
      "anonymous": false,
      "inputs": [
        {
          "indexed": false,
          "internalType": "bytes32",
          "name": "petitionId",
          "type": "bytes32"
        },
        {
          "indexed": false,
          "internalType": "address",
          "name": "voter",
          "type": "address"
        }
      ],
      "name": "PetitionSigned",
      "type": "event"
    },
    {
      "inputs": [
        {
          "internalType": "uint256",
          "name": "",
          "type": "uint256"
        }
      ],
      "name": "allPetitionIds",
      "outputs": [
        {
          "internalType": "bytes32",
          "name": "",
          "type": "bytes32"
        }
      ],
      "stateMutability": "view",
      "type": "function",
      "constant": true
    },
    {
      "inputs": [
        {
          "internalType": "bytes32",
          "name": "",
          "type": "bytes32"
        }
      ],
      "name": "petitions",
      "outputs": [
        {
          "internalType": "bytes32",
          "name": "hash",
          "type": "bytes32"
        },
        {
          "internalType": "bool",
          "name": "exists",
          "type": "bool"
        },
        {
          "internalType": "bool",
          "name": "isActive",
          "type": "bool"
        },
        {
          "internalType": "address",
          "name": "creator",
          "type": "address"
        },
        {
          "internalType": "uint256",
          "name": "approvedVotes",
          "type": "uint256"
        },
        {
          "internalType": "uint256",
          "name": "disapprovedVotes",
          "type": "uint256"
        },
        {
          "internalType": "uint256",
          "name": "deadline",
          "type": "uint256"
        }
      ],
      "stateMutability": "view",
      "type": "function",
      "constant": true
    },
    {
      "inputs": [
        {
          "internalType": "bytes32",
          "name": "petitionId",
          "type": "bytes32"
        },
        {
          "internalType": "bytes32",
          "name": "petitionHash",
          "type": "bytes32"
        },
        {
          "internalType": "uint256",
          "name": "durationInSeconds",
          "type": "uint256"
        }
      ],
      "name": "createPetition",
      "outputs": [],
      "stateMutability": "nonpayable",
      "type": "function"
    },
    {
      "inputs": [
        {
          "internalType": "bytes32",
          "name": "petitionId",
          "type": "bytes32"
        }
      ],
      "name": "publishResults",
      "outputs": [],
      "stateMutability": "nonpayable",
      "type": "function"
    },
    {
      "inputs": [
        {
          "internalType": "bytes32",
          "name": "petitionId",
          "type": "bytes32"
        }
      ],
      "name": "getPetitionHash",
      "outputs": [
        {
          "internalType": "bytes32",
          "name": "",
          "type": "bytes32"
        }
      ],
      "stateMutability": "view",
      "type": "function",
      "constant": true
    },
    {
      "inputs": [
        {
          "internalType": "bytes32",
          "name": "petitionId",
          "type": "bytes32"
        },
        {
          "internalType": "bool",
          "name": "approve",
          "type": "bool"
        }
      ],
      "name": "signPetition",
      "outputs": [],
      "stateMutability": "nonpayable",
      "type": "function"
    },
    {
      "inputs": [
        {
          "internalType": "bytes32",
          "name": "petitionId",
          "type": "bytes32"
        }
      ],
      "name": "showResults",
      "outputs": [
        {
          "internalType": "bool",
          "name": "",
          "type": "bool"
        }
      ],
      "stateMutability": "view",
      "type": "function",
      "constant": true
    },
    {
      "inputs": [
        {
          "internalType": "bytes32",
          "name": "petitionId",
          "type": "bytes32"
        }
      ],
      "name": "getVoters",
      "outputs": [
        {
          "internalType": "address[]",
          "name": "",
          "type": "address[]"
        }
      ],
      "stateMutability": "view",
      "type": "function",
      "constant": true
    },
    {
      "inputs": [],
      "name": "getAllPetitionIds",
      "outputs": [
        {
          "internalType": "bytes32[]",
          "name": "",
          "type": "bytes32[]"
        }
      ],
      "stateMutability": "view",
      "type": "function",
      "constant": true
    }
  ],
  "bytecode": "0x608060405234801561001057600080fd5b50611352806100206000396000f3fe608060405234801561001057600080fd5b50600436106100935760003560e01c80638b4a781c116100665780638b4a781c1461014a578063a74e49bb1461017a578063b9ceb35514610196578063e16a435d146101b4578063eef62a18146101e457610093565b806304ba66931461009857806331c93bd4146100c8578063486dd43b146100e45780637da1f57c1461011a575b600080fd5b6100b260048036038101906100ad9190610b03565b610200565b6040516100bf9190610b49565b60405180910390f35b6100e260048036038101906100dd9190610bc8565b610224565b005b6100fe60048036038101906100f99190610c08565b610457565b6040516101119796959493929190610c94565b60405180910390f35b610134600480360381019061012f9190610c08565b6104d3565b6040516101419190610d03565b60405180910390f35b610164600480360381019061015f9190610c08565b6105df565b6040516101719190610ddc565b60405180910390f35b610194600480360381019061018f9190610c08565b6106e4565b005b61019e610860565b6040516101ab9190610ebc565b60405180910390f35b6101ce60048036038101906101c99190610c08565b6108b8565b6040516101db9190610b49565b60405180910390f35b6101fe60048036038101906101f99190610ede565b610939565b005b6001818154811061021057600080fd5b906000526020600020016000915090505481565b60008083815260200190815260200160002060010160019054906101000a900460ff16610286576040517f08c379a000000000000000000000000000000000000000000000000000000000815260040161027d90610f8e565b60405180910390fd5b6000806000848152602001908152602001600020905060005b816002018054905081101561036f573373ffffffffffffffffffffffffffffffffffffffff168260020182815481106102db576102da610fae565b5b9060005260206000200160009054906101000a900473ffffffffffffffffffffffffffffffffffffffff1673ffffffffffffffffffffffffffffffffffffffff160361035c576040517f08c379a000000000000000000000000000000000000000000000000000000000815260040161035390611029565b60405180910390fd5b808061036790611078565b91505061029f565b5080600201339080600181540180825580915050600190039060005260206000200160009091909190916101000a81548173ffffffffffffffffffffffffffffffffffffffff021916908373ffffffffffffffffffffffffffffffffffffffff16021790555081156103fc5760018160030160008282546103f091906110c0565b92505081905550610419565b600181600401600082825461041191906110c0565b925050819055505b7fc5ab93682a3c220217df15fc9d7cc84f9cc5c9d496d765631cdf87e2c9d5527d833360405161044a9291906110f4565b60405180910390a1505050565b60006020528060005260406000206000915090508060000154908060010160009054906101000a900460ff16908060010160019054906101000a900460ff16908060010160029054906101000a900473ffffffffffffffffffffffffffffffffffffffff16908060030154908060040154908060050154905087565b600080600083815260200190815260200160002060010160009054906101000a900460ff16610537576040517f08c379a000000000000000000000000000000000000000000000000000000000815260040161052e90610f8e565b60405180910390fd5b60008083815260200190815260200160002060010160019054906101000a900460ff161561059a576040517f08c379a000000000000000000000000000000000000000000000000000000000815260040161059190611169565b60405180910390fd5b600080838152602001908152602001600020600401546000808481526020019081526020016000206003015411156105d557600190506105da565b600090505b919050565b606060008083815260200190815260200160002060010160009054906101000a900460ff16610643576040517f08c379a000000000000000000000000000000000000000000000000000000000815260040161063a90610f8e565b60405180910390fd5b6000808381526020019081526020016000206002018054806020026020016040519081016040528092919081815260200182805480156106d857602002820191906000526020600020905b8160009054906101000a900473ffffffffffffffffffffffffffffffffffffffff1673ffffffffffffffffffffffffffffffffffffffff168152602001906001019080831161068e575b50505050509050919050565b600080600083815260200190815260200160002090508060010160009054906101000a900460ff1661074b576040517f08c379a000000000000000000000000000000000000000000000000000000000815260040161074290610f8e565b60405180910390fd5b8060010160019054906101000a900460ff1661079c576040517f08c379a0000000000000000000000000000000000000000000000000000000008152600401610793906111d5565b60405180910390fd5b6000816004015482600301546107b291906110c0565b90508160050154421015806107c8575060648110155b610807576040517f08c379a00000000000000000000000000000000000000000000000000000000081526004016107fe90611267565b60405180910390fd5b60008260010160016101000a81548160ff0219169083151502179055507fd389168957175d8d1ec3dacdb33d7ab2a573fbc9b2afc02e9919d5c174619aa3836040516108539190610b49565b60405180910390a1505050565b606060018054806020026020016040519081016040528092919081815260200182805480156108ae57602002820191906000526020600020905b81548152602001906001019080831161089a575b5050505050905090565b600080600083815260200190815260200160002060010160009054906101000a900460ff1661091c576040517f08c379a000000000000000000000000000000000000000000000000000000000815260040161091390610f8e565b60405180910390fd5b600080838152602001908152602001600020600001549050919050565b60008084815260200190815260200160002060010160009054906101000a900460ff161561099c576040517f08c379a0000000000000000000000000000000000000000000000000000000008152600401610993906112d3565b60405180910390fd5b6000806000858152602001908152602001600020905082816000018190555060018160010160016101000a81548160ff02191690831515021790555060018160010160006101000a81548160ff0219169083151502179055506000816003018190555060008160040181905550338160010160026101000a81548173ffffffffffffffffffffffffffffffffffffffff021916908373ffffffffffffffffffffffffffffffffffffffff1602179055508142610a5891906110c0565b816005018190555060018490806001815401808255809150506001900390600052602060002001600090919091909150557f6e66bebb34491805d6ac1ebb9eaf86dbd7238e66fea339d57df209f750f742ad8484604051610aba9291906112f3565b60405180910390a150505050565b600080fd5b6000819050919050565b610ae081610acd565b8114610aeb57600080fd5b50565b600081359050610afd81610ad7565b92915050565b600060208284031215610b1957610b18610ac8565b5b6000610b2784828501610aee565b91505092915050565b6000819050919050565b610b4381610b30565b82525050565b6000602082019050610b5e6000830184610b3a565b92915050565b610b6d81610b30565b8114610b7857600080fd5b50565b600081359050610b8a81610b64565b92915050565b60008115159050919050565b610ba581610b90565b8114610bb057600080fd5b50565b600081359050610bc281610b9c565b92915050565b60008060408385031215610bdf57610bde610ac8565b5b6000610bed85828601610b7b565b9250506020610bfe85828601610bb3565b9150509250929050565b600060208284031215610c1e57610c1d610ac8565b5b6000610c2c84828501610b7b565b91505092915050565b610c3e81610b90565b82525050565b600073ffffffffffffffffffffffffffffffffffffffff82169050919050565b6000610c6f82610c44565b9050919050565b610c7f81610c64565b82525050565b610c8e81610acd565b82525050565b600060e082019050610ca9600083018a610b3a565b610cb66020830189610c35565b610cc36040830188610c35565b610cd06060830187610c76565b610cdd6080830186610c85565b610cea60a0830185610c85565b610cf760c0830184610c85565b98975050505050505050565b6000602082019050610d186000830184610c35565b92915050565b600081519050919050565b600082825260208201905092915050565b6000819050602082019050919050565b610d5381610c64565b82525050565b6000610d658383610d4a565b60208301905092915050565b6000602082019050919050565b6000610d8982610d1e565b610d938185610d29565b9350610d9e83610d3a565b8060005b83811015610dcf578151610db68882610d59565b9750610dc183610d71565b925050600181019050610da2565b5085935050505092915050565b60006020820190508181036000830152610df68184610d7e565b905092915050565b600081519050919050565b600082825260208201905092915050565b6000819050602082019050919050565b610e3381610b30565b82525050565b6000610e458383610e2a565b60208301905092915050565b6000602082019050919050565b6000610e6982610dfe565b610e738185610e09565b9350610e7e83610e1a565b8060005b83811015610eaf578151610e968882610e39565b9750610ea183610e51565b925050600181019050610e82565b5085935050505092915050565b60006020820190508181036000830152610ed68184610e5e565b905092915050565b600080600060608486031215610ef757610ef6610ac8565b5b6000610f0586828701610b7b565b9350506020610f1686828701610b7b565b9250506040610f2786828701610aee565b9150509250925092565b600082825260208201905092915050565b7f5065746974696f6e20646f6573206e6f74206578697374000000000000000000600082015250565b6000610f78601783610f31565b9150610f8382610f42565b602082019050919050565b60006020820190508181036000830152610fa781610f6b565b9050919050565b7f4e487b7100000000000000000000000000000000000000000000000000000000600052603260045260246000fd5b7f416c726561647920766f74656400000000000000000000000000000000000000600082015250565b6000611013600d83610f31565b915061101e82610fdd565b602082019050919050565b6000602082019050818103600083015261104281611006565b9050919050565b7f4e487b7100000000000000000000000000000000000000000000000000000000600052601160045260246000fd5b600061108382610acd565b91507fffffffffffffffffffffffffffffffffffffffffffffffffffffffffffffffff82036110b5576110b4611049565b5b600182019050919050565b60006110cb82610acd565b91506110d683610acd565b92508282019050808211156110ee576110ed611049565b5b92915050565b60006040820190506111096000830185610b3a565b6111166020830184610c76565b9392505050565b7f5065746974696f6e207374696c6c2072756e6e696e6700000000000000000000600082015250565b6000611153601683610f31565b915061115e8261111d565b602082019050919050565b6000602082019050818103600083015261118281611146565b9050919050565b7f5065746974696f6e20616c726561647920636c6f736564000000000000000000600082015250565b60006111bf601783610f31565b91506111ca82611189565b602082019050919050565b600060208201905081810360008301526111ee816111b2565b9050919050565b7f546f6f206561726c793a206e656564206d6f726520766f746573206f7220776160008201527f697420666f7220646561646c696e650000000000000000000000000000000000602082015250565b6000611251602f83610f31565b915061125c826111f5565b604082019050919050565b6000602082019050818103600083015261128081611244565b9050919050565b7f5065746974696f6e20616c726561647920657869737473000000000000000000600082015250565b60006112bd601783610f31565b91506112c882611287565b602082019050919050565b600060208201905081810360008301526112ec816112b0565b9050919050565b60006040820190506113086000830185610b3a565b6113156020830184610b3a565b939250505056fea2646970667358221220f554b3594b9682fee06c289a5c709b0bd24db8547fda8891075ea82357db1fda64736f6c63430008120033",
  "immutableReferences": {},
  "source": "// SPDX-License-Identifier: MIT\npragma solidity ^0.8.18;\n\ncontract PetitionContract {\n    struct Petition {\n    bytes32 hash;\n    bool exists;\n    bool isActive;\n    address creator;\n    address[] voters;\n    uint256 approvedVotes;\n    uint256 disapprovedVotes;\n    uint256 deadline;\n    }\n\n    mapping(bytes32 => Petition) public petitions;         // <--- changed uint256 to bytes32\n\n    event PetitionCreated(bytes32 petitionId, bytes32 hash);\n    event PetitionSigned(bytes32 petitionId, address voter);\n    event PetitionPublished(bytes32 petitionId);\n    bytes32[] public allPetitionIds;\n\n    // Store petition hash\n    function createPetition(bytes32 petitionId, bytes32 petitionHash, uint256 durationInSeconds) public {\n        require(!petitions[petitionId].exists, \"Petition already exists\");\n        Petition storage newPetition = petitions[petitionId];\n        newPetition.hash = petitionHash;\n        newPetition.isActive = true;\n        newPetition.exists = true;\n        newPetition.approvedVotes = 0;\n        newPetition.disapprovedVotes = 0;\n        newPetition.creator = msg.sender;\n        newPetition.deadline = block.timestamp + durationInSeconds;\n        // voters[] is automatically initialized as empty\n\n        allPetitionIds.push(petitionId);\n        emit PetitionCreated(petitionId, petitionHash);\n    }\n\n    // Publish results (only creator)\n    function publishResults(bytes32 petitionId) public {\n    Petition storage petition = petitions[petitionId];\n    require(petition.exists, \"Petition does not exist\");\n    require(petition.isActive, \"Petition already closed\");\n\n    uint256 totalVotes = petition.approvedVotes + petition.disapprovedVotes;\n\n    require(\n        block.timestamp >= petition.deadline || totalVotes >= 100, // adjust threshold as needed\n        \"Too early: need more votes or wait for deadline\"\n    );\n\n    petition.isActive = false;\n    emit PetitionPublished(petitionId);\n}\n\n    // Retrieve petition hash\n    function getPetitionHash(bytes32 petitionId) public view returns (bytes32) {\n        require(petitions[petitionId].exists, \"Petition does not exist\");\n        return petitions[petitionId].hash;\n    }\n\n    // Record a vote\n    function signPetition(bytes32 petitionId, bool approve) public {\n        require(petitions[petitionId].isActive, \"Petition does not exist\");\n        Petition storage petition = petitions[petitionId];\n        // Prevent double voting\n        for (uint256 i = 0; i < petition.voters.length; i++) {\n            require(petition.voters[i] != msg.sender, \"Already voted\");\n        }\n\n        petition.voters.push(msg.sender);\n\n        if (approve) {\n            petition.approvedVotes += 1;\n        } else {\n            petition.disapprovedVotes += 1;\n        }\n\n        emit PetitionSigned(petitionId, msg.sender);\n    }\n\n    function showResults(bytes32 petitionId) public view returns (bool) {\n        require(petitions[petitionId].exists, \"Petition does not exist\");\n        require(!petitions[petitionId].isActive, \"Petition still running\");\n        if(petitions[petitionId].approvedVotes > petitions[petitionId].disapprovedVotes)\n        {\n            return true;\n        }\n        else{\n            return false;\n        }\n    }\n\n    // Get voters list\n    function getVoters(bytes32 petitionId) public view returns (address[] memory) {\n        require(petitions[petitionId].exists, \"Petition does not exist\");\n        return petitions[petitionId].voters;\n    }\n\n    function getAllPetitionIds() public view returns (bytes32[] memory) {\n    return allPetitionIds;\n    }\n}\n",
  "sourcePath": "/home/sayali/Desktop/PPPS/contracts/PetitionContract.sol",
  "compiler": {
    "name": "solc",
    "version": "0.8.18+commit.87f61d96.Emscripten.clang"
  },
  "schemaVersion": "3.4.16",
  "updatedAt": "2025-05-03T14:01:47.770Z",
  "networkType": "ethereum",
  "devdoc": {
    "kind": "dev",
    "methods": {},
    "version": 1
  },
  "userdoc": {
    "kind": "user",
    "methods": {},
    "version": 1
  }
}